{
  "contractName": "tradingEmissions",
  "abi": [
    {
      "constant": false,
      "inputs": [
        {
          "name": "seller",
          "type": "address"
        },
        {
          "name": "emus",
          "type": "uint256"
        }
      ],
      "name": "buyEmus",
      "outputs": [],
      "payable": true,
      "stateMutability": "payable",
      "type": "function"
    },
    {
      "constant": false,
      "inputs": [],
      "name": "kill",
      "outputs": [],
      "payable": false,
      "stateMutability": "nonpayable",
      "type": "function"
    },
    {
      "constant": false,
      "inputs": [
        {
          "name": "company",
          "type": "address"
        },
        {
          "name": "addedEmus",
          "type": "uint256"
        }
      ],
      "name": "updateEmus",
      "outputs": [],
      "payable": false,
      "stateMutability": "nonpayable",
      "type": "function"
    },
    {
      "constant": false,
      "inputs": [],
      "name": "payFine",
      "outputs": [],
      "payable": true,
      "stateMutability": "payable",
      "type": "function"
    },
    {
      "constant": false,
      "inputs": [
        {
          "name": "company",
          "type": "address"
        }
      ],
      "name": "timestamp",
      "outputs": [],
      "payable": false,
      "stateMutability": "nonpayable",
      "type": "function"
    },
    {
      "constant": false,
      "inputs": [
        {
          "name": "emusToRemove",
          "type": "uint256"
        }
      ],
      "name": "removeEmusFromSale",
      "outputs": [],
      "payable": false,
      "stateMutability": "nonpayable",
      "type": "function"
    },
    {
      "constant": false,
      "inputs": [
        {
          "name": "newRegulator",
          "type": "address"
        }
      ],
      "name": "addRegulator",
      "outputs": [],
      "payable": false,
      "stateMutability": "nonpayable",
      "type": "function"
    },
    {
      "constant": false,
      "inputs": [
        {
          "name": "company",
          "type": "address"
        },
        {
          "name": "fine",
          "type": "uint256"
        }
      ],
      "name": "putFine",
      "outputs": [],
      "payable": false,
      "stateMutability": "nonpayable",
      "type": "function"
    },
    {
      "constant": false,
      "inputs": [
        {
          "name": "company",
          "type": "address"
        },
        {
          "name": "name",
          "type": "string"
        },
        {
          "name": "emuLimit",
          "type": "uint256"
        }
      ],
      "name": "addCompany",
      "outputs": [],
      "payable": false,
      "stateMutability": "nonpayable",
      "type": "function"
    },
    {
      "constant": false,
      "inputs": [
        {
          "name": "emusToSale",
          "type": "uint256"
        }
      ],
      "name": "putEmusOnSale",
      "outputs": [],
      "payable": false,
      "stateMutability": "nonpayable",
      "type": "function"
    },
    {
      "inputs": [],
      "payable": false,
      "stateMutability": "nonpayable",
      "type": "constructor"
    }
  ],
  "bytecode": "0x60606040526001600355341561001457600080fd5b336000806101000a81548173ffffffffffffffffffffffffffffffffffffffff021916908373ffffffffffffffffffffffffffffffffffffffff16021790555033600160006101000a81548173ffffffffffffffffffffffffffffffffffffffff021916908373ffffffffffffffffffffffffffffffffffffffff160217905550610fc7806100a46000396000f3006060604052600436106100a4576000357c0100000000000000000000000000000000000000000000000000000000900463ffffffff1680630da93108146100a957806341c0e1b5146100e057806350925696146100f55780636d531e83146101375780637302dacf14610141578063806793941461017a578063ac63f3c71461019d578063b3fe8501146101d6578063bbb9b58f14610218578063f7a89dfc1461029d575b600080fd5b6100de600480803573ffffffffffffffffffffffffffffffffffffffff169060200190919080359060200190919050506102c0565b005b34156100eb57600080fd5b6100f36104d9565b005b341561010057600080fd5b610135600480803573ffffffffffffffffffffffffffffffffffffffff1690602001909190803590602001909190505061056a565b005b61013f61071a565b005b341561014c57600080fd5b610178600480803573ffffffffffffffffffffffffffffffffffffffff1690602001909190505061085f565b005b341561018557600080fd5b61019b60048080359060200190919050506108ae565b005b34156101a857600080fd5b6101d4600480803573ffffffffffffffffffffffffffffffffffffffff169060200190919050506109a6565b005b34156101e157600080fd5b610216600480803573ffffffffffffffffffffffffffffffffffffffff16906020019091908035906020019091905050610aae565b005b341561022357600080fd5b61029b600480803573ffffffffffffffffffffffffffffffffffffffff1690602001909190803590602001908201803590602001908080601f01602080910402602001604051908101604052809392919081815260200183838082843782019150505050505091908035906020019091905050610c53565b005b34156102a857600080fd5b6102be6004808035906020019091905050610dba565b005b816000600460008373ffffffffffffffffffffffffffffffffffffffff1673ffffffffffffffffffffffffffffffffffffffff1681526020019081526020016000206000018054600181600116156101000203166002900490501415151561032757600080fd5b336000600460008373ffffffffffffffffffffffffffffffffffffffff1673ffffffffffffffffffffffffffffffffffffffff1681526020019081526020016000206000018054600181600116156101000203166002900490501415151561038e57600080fd5b83833460008090508160035402831415156103a857600080fd5b82600460008673ffffffffffffffffffffffffffffffffffffffff1673ffffffffffffffffffffffffffffffffffffffff16815260200190815260200160002060030154101515156103f957600080fd5b86600460008a73ffffffffffffffffffffffffffffffffffffffff1673ffffffffffffffffffffffffffffffffffffffff1681526020019081526020016000206003016000828254039250508190555086600460003373ffffffffffffffffffffffffffffffffffffffff1673ffffffffffffffffffffffffffffffffffffffff168152602001908152602001600020600101600082825403925050819055508773ffffffffffffffffffffffffffffffffffffffff166108fc349081150290604051600060405180830381858888f19350505050505050505050505050565b6000809054906101000a900473ffffffffffffffffffffffffffffffffffffffff1673ffffffffffffffffffffffffffffffffffffffff163373ffffffffffffffffffffffffffffffffffffffff161415610568576000809054906101000a900473ffffffffffffffffffffffffffffffffffffffff1673ffffffffffffffffffffffffffffffffffffffff16ff5b565b816000600460008373ffffffffffffffffffffffffffffffffffffffff1673ffffffffffffffffffffffffffffffffffffffff168152602001908152602001600020600001805460018160011615610100020316600290049050141515156105d157600080fd5b338073ffffffffffffffffffffffffffffffffffffffff16600260009054906101000a900473ffffffffffffffffffffffffffffffffffffffff1673ffffffffffffffffffffffffffffffffffffffff1614151561062e57600080fd5b82600460008673ffffffffffffffffffffffffffffffffffffffff1673ffffffffffffffffffffffffffffffffffffffff16815260200190815260200160002060010160008282540192505081905550600460008573ffffffffffffffffffffffffffffffffffffffff1673ffffffffffffffffffffffffffffffffffffffff16815260200190815260200160002060020154600460008673ffffffffffffffffffffffffffffffffffffffff1673ffffffffffffffffffffffffffffffffffffffff168152602001908152602001600020600101541315610714576107138461085f565b5b50505050565b336000600460008373ffffffffffffffffffffffffffffffffffffffff1673ffffffffffffffffffffffffffffffffffffffff1681526020019081526020016000206004015411151561076c57600080fd5b600460003373ffffffffffffffffffffffffffffffffffffffff1673ffffffffffffffffffffffffffffffffffffffff16815260200190815260200160002060040154341415156107bc57600080fd5b6000600460003373ffffffffffffffffffffffffffffffffffffffff1673ffffffffffffffffffffffffffffffffffffffff16815260200190815260200160002060040181905550600260009054906101000a900473ffffffffffffffffffffffffffffffffffffffff1673ffffffffffffffffffffffffffffffffffffffff166108fc349081150290604051600060405180830381858888f193505050505050565b6213c6804201600460008373ffffffffffffffffffffffffffffffffffffffff1673ffffffffffffffffffffffffffffffffffffffff1681526020019081526020016000206005018190555050565b338180600460008473ffffffffffffffffffffffffffffffffffffffff1673ffffffffffffffffffffffffffffffffffffffff168152602001908152602001600020600301541015151561090157600080fd5b82600460003373ffffffffffffffffffffffffffffffffffffffff1673ffffffffffffffffffffffffffffffffffffffff1681526020019081526020016000206003016000828254039250508190555082600460003373ffffffffffffffffffffffffffffffffffffffff1673ffffffffffffffffffffffffffffffffffffffff16815260200190815260200160002060010160008282540392505081905550505050565b336000809054906101000a900473ffffffffffffffffffffffffffffffffffffffff1673ffffffffffffffffffffffffffffffffffffffff168173ffffffffffffffffffffffffffffffffffffffff16141515610a0257600080fd5b816000600460008373ffffffffffffffffffffffffffffffffffffffff1673ffffffffffffffffffffffffffffffffffffffff168152602001908152602001600020600001805460018160011615610100020316600290049050141515610a6857600080fd5b82600260006101000a81548173ffffffffffffffffffffffffffffffffffffffff021916908373ffffffffffffffffffffffffffffffffffffffff160217905550505050565b338073ffffffffffffffffffffffffffffffffffffffff16600260009054906101000a900473ffffffffffffffffffffffffffffffffffffffff1673ffffffffffffffffffffffffffffffffffffffff16141515610b0b57600080fd5b826000600460008373ffffffffffffffffffffffffffffffffffffffff1673ffffffffffffffffffffffffffffffffffffffff16815260200190815260200160002060000180546001816001161561010002031660029004905014151515610b7257600080fd5b83600460008273ffffffffffffffffffffffffffffffffffffffff1673ffffffffffffffffffffffffffffffffffffffff16815260200190815260200160002060020154600460008373ffffffffffffffffffffffffffffffffffffffff1673ffffffffffffffffffffffffffffffffffffffff16815260200190815260200160002060010154131515610c0557600080fd5b83600460008773ffffffffffffffffffffffffffffffffffffffff1673ffffffffffffffffffffffffffffffffffffffff168152602001908152602001600020600401819055505050505050565b336000809054906101000a900473ffffffffffffffffffffffffffffffffffffffff1673ffffffffffffffffffffffffffffffffffffffff168173ffffffffffffffffffffffffffffffffffffffff16141515610caf57600080fd5b836000600460008373ffffffffffffffffffffffffffffffffffffffff1673ffffffffffffffffffffffffffffffffffffffff168152602001908152602001600020600001805460018160011615610100020316600290049050141515610d1557600080fd5b83600460008773ffffffffffffffffffffffffffffffffffffffff1673ffffffffffffffffffffffffffffffffffffffff1681526020019081526020016000206000019080519060200190610d6b929190610ef6565b5082600460008773ffffffffffffffffffffffffffffffffffffffff1673ffffffffffffffffffffffffffffffffffffffff168152602001908152602001600020600201819055505050505050565b338180600460008473ffffffffffffffffffffffffffffffffffffffff1673ffffffffffffffffffffffffffffffffffffffff1681526020019081526020016000206003015401600460008473ffffffffffffffffffffffffffffffffffffffff1673ffffffffffffffffffffffffffffffffffffffff1681526020019081526020016000206002015410151515610e5157600080fd5b82600460003373ffffffffffffffffffffffffffffffffffffffff1673ffffffffffffffffffffffffffffffffffffffff1681526020019081526020016000206003016000828254019250508190555082600460003373ffffffffffffffffffffffffffffffffffffffff1673ffffffffffffffffffffffffffffffffffffffff16815260200190815260200160002060010160008282540192505081905550505050565b828054600181600116156101000203166002900490600052602060002090601f016020900481019282601f10610f3757805160ff1916838001178555610f65565b82800160010185558215610f65579182015b82811115610f64578251825591602001919060010190610f49565b5b509050610f729190610f76565b5090565b610f9891905b80821115610f94576000816000905550600101610f7c565b5090565b905600a165627a7a72305820093935475100998c000a3273d0030cb6564c81e8e3f824ff1a611dae497bbb3a0029",
  "source": "pragma solidity ^0.4.17;\n\ncontract mortal {\n    /* Define variable owner of the type address */\n    address owner;\n    \n    /* This function is executed at initialization and sets the owner of the contract */\n    function mortal() public { owner = msg.sender; }\n\n    /* Function to recover the funds on the contract */\n    function kill() public { if (msg.sender == owner) selfdestruct(owner); }\n}\n\n\ncontract tradingEmissions is mortal {\n\n  address creator;\n  address regulator;\n  // STATE \n  struct Company{\n    //uint RIN_ID;?\n    string name;\n    int emus;//emu => emission units, emu <= emuLimit at all times, less is better\n    uint emuLimit; //upper bound, more is not possible => implies a fine to compayn\n    uint emusOnSale; //more is better\n    uint fine; // if >0 then it is locked\n    uint fine_deadline;\n  }\n  \n  uint emusPrice = 1; //1 wei == 1 emissionsunitPrice\n  mapping (address => Company) companies;\n  /* Constructor */\n  function tradingEmissions() public {\n    creator = msg.sender;\n  }\n\n  modifier isCompany(address ad){\n    require(bytes(companies[ad].name).length != 0);//name is the ID atm\n    _;\n  }\n    \n  modifier enoughFreeUnits(address seller, uint emus, uint price){\n    uint totalUnits=0;\n    require(emus==emusPrice*price);\n    require(companies[seller].emusOnSale>= emus);\n    _;\n  }\n  \n  function buyEmus(address seller, uint emus) public payable// TODO QUEUE for buying instead of specifying seller\n    isCompany(seller)\n    isCompany(msg.sender)\n    enoughFreeUnits(seller,emus,msg.value)\n      {\n\tcompanies[seller].emusOnSale-= emus;\n\tcompanies[msg.sender].emus-= int(emus);\n\t\n\n\tseller.send(msg.value);//TO-TEST send money to seller\n      }\n  \n  modifier enoughForSale(address owner, uint emusToSale){\n    require(companies[owner].emuLimit>=companies[owner].emusOnSale+emusToSale);\n    _;\n  }\n  \n  function putEmusOnSale(uint emusToSale)\n    enoughForSale(msg.sender,emusToSale)\n  {\n    companies[msg.sender].emusOnSale+=emusToSale;\n    companies[msg.sender].emus+=int(emusToSale);\n  }\n\n  modifier enoughToRemove(address owner, uint emusToRemove){\n    require(companies[owner].emusOnSale>=emusToRemove);\n    _;\n  }\n\n  function removeEmusFromSale(uint emusToRemove)\n    enoughToRemove(msg.sender,emusToRemove)\n  {\n    companies[msg.sender].emusOnSale-=emusToRemove;\n    companies[msg.sender].emus-=int(emusToRemove);\n  }\n\n  modifier isRegulator(address ad){\n    require(regulator==ad);\n    _;\n  }\n  \n  function updateEmus(address company, uint addedEmus)\n    isCompany(company)\n    isRegulator(msg.sender)\n  {\n    companies[company].emus+=int(addedEmus);\n    if(companies[company].emus>int(companies[company].emuLimit))// --> Account uncovered\n      timestamp(company);\n  }\n\n  function timestamp(address company){\n    companies[company].fine_deadline = block.timestamp + 86400*15;//15 days for deadline to balance account\n  }\n\n  modifier isUncovered(address company){\n    require(companies[company].emus>int(companies[company].emuLimit));\n    _;\n  }\n  \n  function putFine(address company, uint fine)\n    isRegulator(msg.sender)\n    isCompany(company)\n    isUncovered(company)\n  {\n    //lock account\n    companies[company].fine = fine;//account locked till fine paid\n  }\n\n  modifier isLocked(address company){\n    require(companies[company].fine>0);\n    _;\n  }\n  \n  function payFine() payable\n    isLocked(msg.sender)\n  {\n    require(msg.value==companies[msg.sender].fine);\n    companies[msg.sender].fine=0;\n    regulator.send(msg.value);//TO-TEST send money to regulator\n  }\n\n  modifier isCreator(address ad){\n    require(ad==owner);\n    _;\n  }\n  \n  modifier isNotCompany(address ad){\n    require(bytes(companies[ad].name).length == 0);//name is the ID atm\n    _;\n  }\n  \n  function addCompany(address company, string name, uint emuLimit)\n    isCreator(msg.sender)\n    isNotCompany(company){\n    companies[company].name=name;\n    companies[company].emuLimit=emuLimit;\n  }\n\n  function addRegulator(address newRegulator)\n    isCreator(msg.sender)\n    isNotCompany(newRegulator){\n    regulator = newRegulator;\n  }\n\n  // Getters\n\n\n\n}\n",
  "sourcePath": "/home/gabriel/Documents/equchain/frontend/contracts/TradingEmissions.sol",
  "compiler": {
    "name": "solc",
    "version": "0.4.18+commit.9cf6e910.Emscripten.clang"
  },
  "schemaVersion": "1.0.1",
  "updatedAt": "2017-12-09T14:33:49.006Z"
}