{
  "contractName": "mortal",
  "abi": [
    {
      "constant": false,
      "inputs": [],
      "name": "kill",
      "outputs": [],
      "payable": false,
      "stateMutability": "nonpayable",
      "type": "function"
    },
    {
      "inputs": [],
      "payable": false,
      "stateMutability": "nonpayable",
      "type": "constructor"
    }
  ],
  "bytecode": "0x6060604052341561000f57600080fd5b336000806101000a81548173ffffffffffffffffffffffffffffffffffffffff021916908373ffffffffffffffffffffffffffffffffffffffff1602179055506101128061005e6000396000f300606060405260043610603f576000357c0100000000000000000000000000000000000000000000000000000000900463ffffffff16806341c0e1b5146044575b600080fd5b3415604e57600080fd5b60546056565b005b6000809054906101000a900473ffffffffffffffffffffffffffffffffffffffff1673ffffffffffffffffffffffffffffffffffffffff163373ffffffffffffffffffffffffffffffffffffffff16141560e4576000809054906101000a900473ffffffffffffffffffffffffffffffffffffffff1673ffffffffffffffffffffffffffffffffffffffff16ff5b5600a165627a7a72305820e70e4400bd52e3703368d1f8a543358a45434c34dce8ece7fde3adb6507fa7cd0029",
  "source": "pragma solidity ^0.4.17;\n\ncontract mortal {\n    /* Define variable owner of the type address */\n    address owner;\n    \n    /* This function is executed at initialization and sets the owner of the contract */\n    function mortal() public { owner = msg.sender; }\n\n    /* Function to recover the funds on the contract */\n    function kill() public { if (msg.sender == owner) selfdestruct(owner); }\n}\n\n\ncontract tradingEmissions is mortal {\n\n  address creator;\n  address regulator;\n  // STATE \n  struct Company{\n    //uint RIN_ID;?\n    string name;\n    int emus;//emu => emission units, emu <= emuLimit at all times, less is better\n    uint emuLimit; //upper bound, more is not possible => implies a fine to compayn\n    uint emusOnSale; //more is better\n    uint fine; // if >0 then it is locked\n    uint fine_deadline;\n  }\n  \n  uint emusPrice = 1; //1 wei == 1 emissionsunitPrice\n  mapping (address => Company) companies;\n  /* Constructor */\n  function tradingEmissions() public {\n    creator = msg.sender;\n    addCompany(msg.sender, \"testcompany\", 500);\n  }\n\n  modifier isCompany(address ad){\n    require(bytes(companies[ad].name).length != 0);//name is the ID atm\n    _;\n  }\n    \n  modifier enoughFreeUnits(address seller, uint emus, uint price){\n    uint totalUnits=0;\n    require(emus==emusPrice*price);\n    require(companies[seller].emusOnSale>= emus);\n    _;\n  }\n  \n  function buyEmus(address seller, uint emus) public payable // TODO QUEUE for buying instead of specifying seller\n    isCompany(seller)\n    isCompany(msg.sender)\n    enoughFreeUnits(seller,emus,msg.value)\n      {\n\tcompanies[seller].emusOnSale-= emus;\n\tcompanies[msg.sender].emus-= int(emus);\n\t\n\n\tseller.send(msg.value);//TO-TEST send money to seller\n      }\n  \n  modifier enoughForSale(address owner, uint emusToSale){\n    require(companies[owner].emuLimit>=companies[owner].emusOnSale+emusToSale);\n    _;\n  }\n  \n  function putEmusOnSale(uint emusToSale)\n    enoughForSale(msg.sender,emusToSale)\n  {\n    companies[msg.sender].emusOnSale+=emusToSale;\n    companies[msg.sender].emus+=int(emusToSale);\n  }\n\n  modifier enoughToRemove(address owner, uint emusToRemove){\n    require(companies[owner].emusOnSale>=emusToRemove);\n    _;\n  }\n\n  function removeEmusFromSale(uint emusToRemove)\n    enoughToRemove(msg.sender,emusToRemove)\n  {\n    companies[msg.sender].emusOnSale-=emusToRemove;\n    companies[msg.sender].emus-=int(emusToRemove);\n  }\n\n  modifier isRegulator(address ad){\n    require(regulator==ad);\n    _;\n  }\n  \n  function updateEmus(address company, uint addedEmus)\n    isCompany(company)\n    isRegulator(msg.sender)\n  {\n    companies[company].emus+=int(addedEmus);\n    if(companies[company].emus>int(companies[company].emuLimit))// --> Account uncovered\n      timestamp(company);\n  }\n\n  function timestamp(address company){\n    companies[company].fine_deadline = block.timestamp + 86400*15;//15 days for deadline to balance account\n  }\n\n  modifier isUncovered(address company){\n    require(companies[company].emus>int(companies[company].emuLimit));\n    _;\n  }\n  \n  function putFine(address company, uint fine)\n    isRegulator(msg.sender)\n    isCompany(company)\n    isUncovered(company)\n  {\n    //lock account\n    companies[company].fine = fine;//account locked till fine paid\n  }\n\n  modifier isLocked(address company){\n    require(companies[company].fine>0);\n    _;\n  }\n  \n  function payFine() payable\n    isLocked(msg.sender)\n  {\n    require(msg.value==companies[msg.sender].fine);\n    companies[msg.sender].fine=0;\n    regulator.send(msg.value);//TO-TEST send money to regulator\n  }\n\n  modifier isCreator(address ad){\n    require(ad==owner);\n    _;\n  }\n  \n  modifier isNotCompany(address ad){\n    require(bytes(companies[ad].name).length == 0);//name is the ID atm\n    _;\n  }\n  \n  function addCompany(address company, string name, uint emuLimit)\n    isCreator(msg.sender)\n    isNotCompany(company){\n    companies[company].name=name;\n    companies[company].emuLimit=emuLimit;\n  }\n\n  function addRegulator(address newRegulator)\n    isCreator(msg.sender)\n    isNotCompany(newRegulator){\n    regulator = newRegulator;\n  }\n\n  // Getters\n  \n  function getName() view public returns (string) {\n    return companies[msg.sender].name;\n  }\n\n  function getEmus() view public returns (int) {\n    return companies[msg.sender].emus;\n  }\n    \n  function getEmuLimit() view public returns (uint) {\n    return companies[msg.sender].emuLimit;\n  }\n\n  function getEmusOnSale() view public returns (uint) {\n    return companies[msg.sender].emusOnSale;\n  }\n\n  function getFine() view public returns (string) {\n    return bytes32ToString(uintToBytes(companies[msg.sender].fine));\n  }  \n\n  function bytes32ToString(bytes32 x) constant returns (string) {\n      bytes memory bytesString = new bytes(32);\n      uint charCount = 0;\n      for (uint j = 0; j < 32; j++) {\n          byte char = byte(bytes32(uint(x) * 2 ** (8 * j)));\n          if (char != 0) {\n              bytesString[charCount] = char;\n              charCount++;\n          }\n      }\n      bytes memory bytesStringTrimmed = new bytes(charCount);\n      for (j = 0; j < charCount; j++) {\n          bytesStringTrimmed[j] = bytesString[j];\n      }\n      return string(bytesStringTrimmed);\n  }\n\n  function uintToBytes(uint v) constant returns (bytes32 ret) {\n    if (v == 0) {\n        ret = '0';\n    }\n    else {\n        while (v > 0) {\n            ret = bytes32(uint(ret) / (2 ** 8));\n            ret |= bytes32(((v % 10) + 48) * 2 ** (8 * 31));\n            v /= 10;\n        }\n    }\n    return ret;\n}\n}\n",
  "sourcePath": "/home/gabriel/Documents/equchain/contracts/TradingEmissions.sol",
  "compiler": {
    "name": "solc",
    "version": "0.4.18+commit.9cf6e910.Emscripten.clang"
  },
  "schemaVersion": "1.0.1",
  "updatedAt": "2017-12-10T15:26:23.863Z"
}