{
  "contractName": "tradingEmissions",
  "abi": [
    {
      "constant": false,
      "inputs": [
        {
          "name": "seller",
          "type": "address"
        },
        {
          "name": "emus",
          "type": "uint256"
        }
      ],
      "name": "buyEmus",
      "outputs": [],
      "payable": true,
      "stateMutability": "payable",
      "type": "function"
    },
    {
      "constant": true,
      "inputs": [],
      "name": "getName",
      "outputs": [
        {
          "name": "",
          "type": "string"
        }
      ],
      "payable": false,
      "stateMutability": "view",
      "type": "function"
    },
    {
      "constant": false,
      "inputs": [
        {
          "name": "company",
          "type": "address"
        },
        {
          "name": "addedEmus",
          "type": "uint256"
        }
      ],
      "name": "kill",
      "outputs": [],
      "payable": false,
      "stateMutability": "nonpayable",
      "type": "function"
    },
    {
      "constant": false,
      "inputs": [
        {
          "name": "company",
          "type": "address"
        },
        {
          "name": "addedEmus",
          "type": "uint256"
        }
      ],
      "name": "updateEmus",
      "outputs": [],
      "payable": false,
      "stateMutability": "nonpayable",
      "type": "function"
    },
    {
      "constant": true,
      "inputs": [
        {
          "name": "company",
          "type": "address"
        }
      ],
      "name": "getFine",
      "outputs": [
        {
          "name": "",
          "type": "uint256"
        }
      ],
      "payable": false,
      "stateMutability": "view",
      "type": "function"
    },
    {
      "constant": true,
      "inputs": [
        {
          "name": "emusToRemove",
          "type": "uint256"
        }
      ],
      "name": "getEmusOnSale",
      "outputs": [
        {
          "name": "",
          "type": "bytes32"
        }
      ],
      "payable": false,
      "stateMutability": "view",
      "type": "function"
    },
    {
      "constant": false,
      "inputs": [
        {
          "name": "newRegulator",
          "type": "address"
        }
      ],
      "name": "payFine",
      "outputs": [],
      "payable": true,
      "stateMutability": "payable",
      "type": "function"
    },
    {
      "constant": false,
      "inputs": [
        {
          "name": "company",
          "type": "address"
        },
        {
          "name": "fine",
          "type": "uint256"
        }
      ],
      "name": "timestamp",
      "outputs": [],
      "payable": false,
      "stateMutability": "nonpayable",
      "type": "function"
    },
    {
      "constant": false,
      "inputs": [
        {
          "name": "emusToRemove",
          "type": "uint256"
        },
        {
          "name": "name",
          "type": "string"
        },
        {
          "name": "emuLimit",
          "type": "uint256"
        }
      ],
      "name": "removeEmusFromSale",
      "outputs": [],
      "payable": false,
      "stateMutability": "nonpayable",
      "type": "function"
    },
    {
      "constant": true,
      "inputs": [
        {
          "name": "emusToSale",
          "type": "uint256"
        }
      ],
      "name": "getEmuLimit",
      "outputs": [
        {
          "name": "",
          "type": "uint256"
        }
      ],
      "payable": false,
      "stateMutability": "view",
      "type": "function"
    },
    {
      "inputs": [],
      "payable": false,
      "stateMutability": "view",
      "type": "function",
      "constant": true,
      "name": "getEmus",
      "outputs": [
        {
          "name": "",
          "type": "int256"
        }
      ]
    },
    {
      "constant": false,
      "inputs": [
        {
          "name": "newRegulator",
          "type": "address"
        }
      ],
      "name": "addRegulator",
      "outputs": [],
      "payable": false,
      "stateMutability": "nonpayable",
      "type": "function"
    },
    {
      "constant": false,
      "inputs": [
        {
          "name": "company",
          "type": "address"
        },
        {
          "name": "fine",
          "type": "uint256"
        }
      ],
      "name": "putFine",
      "outputs": [],
      "payable": false,
      "stateMutability": "nonpayable",
      "type": "function"
    },
    {
      "constant": false,
      "inputs": [
        {
          "name": "company",
          "type": "address"
        },
        {
          "name": "name",
          "type": "string"
        },
        {
          "name": "emuLimit",
          "type": "uint256"
        }
      ],
      "name": "addCompany",
      "outputs": [],
      "payable": false,
      "stateMutability": "nonpayable",
      "type": "function"
    },
    {
      "constant": false,
      "inputs": [
        {
          "name": "emusToSale",
          "type": "uint256"
        }
      ],
      "name": "putEmusOnSale",
      "outputs": [],
      "payable": false,
      "stateMutability": "nonpayable",
      "type": "function"
    },
    {
      "inputs": [],
      "payable": false,
      "stateMutability": "nonpayable",
      "type": "constructor"
    }
  ],
  "bytecode": "0x6060604052600160035534156200001557600080fd5b336000806101000a81548173ffffffffffffffffffffffffffffffffffffffff021916908373ffffffffffffffffffffffffffffffffffffffff16021790555033600160006101000a81548173ffffffffffffffffffffffffffffffffffffffff021916908373ffffffffffffffffffffffffffffffffffffffff160217905550620000ee336040805190810160405280600b81526020017f74657374636f6d70616e790000000000000000000000000000000000000000008152506101f4620000f464010000000002620011df176401000000009004565b6200030e565b336000809054906101000a900473ffffffffffffffffffffffffffffffffffffffff1673ffffffffffffffffffffffffffffffffffffffff168173ffffffffffffffffffffffffffffffffffffffff161415156200015157600080fd5b836000600460008373ffffffffffffffffffffffffffffffffffffffff1673ffffffffffffffffffffffffffffffffffffffff168152602001908152602001600020600001805460018160011615610100020316600290049050141515620001b857600080fd5b83600460008773ffffffffffffffffffffffffffffffffffffffff1673ffffffffffffffffffffffffffffffffffffffff1681526020019081526020016000206000019080519060200190620002109291906200025f565b5082600460008773ffffffffffffffffffffffffffffffffffffffff1673ffffffffffffffffffffffffffffffffffffffff168152602001908152602001600020600201819055505050505050565b828054600181600116156101000203166002900490600052602060002090601f016020900481019282601f10620002a257805160ff1916838001178555620002d3565b82800160010185558215620002d3579182015b82811115620002d2578251825591602001919060010190620002b5565b5b509050620002e29190620002e6565b5090565b6200030b91905b8082111562000307576000816000905550600101620002ed565b5090565b90565b611567806200031e6000396000f3006060604052600436106100db576000357c0100000000000000000000000000000000000000000000000000000000900463ffffffff1680630da93108146100e057806317d7de7c1461011757806341c0e1b5146101a557806350925696146101ba5780636421c691146101fc578063695ffe82146102255780636d531e83146102565780637302dacf14610260578063806793941461029957806392d3e773146102bc57806397171adc146102e5578063ac63f3c71461030e578063b3fe850114610347578063bbb9b58f14610389578063f7a89dfc1461040e575b600080fd5b610115600480803573ffffffffffffffffffffffffffffffffffffffff16906020019091908035906020019091905050610431565b005b341561012257600080fd5b61012a61064a565b6040518080602001828103825283818151815260200191508051906020019080838360005b8381101561016a57808201518184015260208101905061014f565b50505050905090810190601f1680156101975780820380516001836020036101000a031916815260200191505b509250505060405180910390f35b34156101b057600080fd5b6101b861079a565b005b34156101c557600080fd5b6101fa600480803573ffffffffffffffffffffffffffffffffffffffff1690602001909190803590602001909190505061082b565b005b341561020757600080fd5b61020f6109db565b6040518082815260200191505060405180910390f35b341561023057600080fd5b610238610a8d565b60405180826000191660001916815260200191505060405180910390f35b61025e610b42565b005b341561026b57600080fd5b610297600480803573ffffffffffffffffffffffffffffffffffffffff16906020019091905050610c87565b005b34156102a457600080fd5b6102ba6004808035906020019091905050610cd6565b005b34156102c757600080fd5b6102cf610dce565b6040518082815260200191505060405180910390f35b34156102f057600080fd5b6102f8610e80565b6040518082815260200191505060405180910390f35b341561031957600080fd5b610345600480803573ffffffffffffffffffffffffffffffffffffffff16906020019091905050610f32565b005b341561035257600080fd5b610387600480803573ffffffffffffffffffffffffffffffffffffffff1690602001909190803590602001909190505061103a565b005b341561039457600080fd5b61040c600480803573ffffffffffffffffffffffffffffffffffffffff1690602001909190803590602001908201803590602001908080601f016020809104026020016040519081016040528093929190818152602001838380828437820191505050505050919080359060200190919050506111df565b005b341561041957600080fd5b61042f6004808035906020019091905050611346565b005b816000600460008373ffffffffffffffffffffffffffffffffffffffff1673ffffffffffffffffffffffffffffffffffffffff1681526020019081526020016000206000018054600181600116156101000203166002900490501415151561049857600080fd5b336000600460008373ffffffffffffffffffffffffffffffffffffffff1673ffffffffffffffffffffffffffffffffffffffff168152602001908152602001600020600001805460018160011615610100020316600290049050141515156104ff57600080fd5b838334600080905081600354028314151561051957600080fd5b82600460008673ffffffffffffffffffffffffffffffffffffffff1673ffffffffffffffffffffffffffffffffffffffff168152602001908152602001600020600301541015151561056a57600080fd5b86600460008a73ffffffffffffffffffffffffffffffffffffffff1673ffffffffffffffffffffffffffffffffffffffff1681526020019081526020016000206003016000828254039250508190555086600460003373ffffffffffffffffffffffffffffffffffffffff1673ffffffffffffffffffffffffffffffffffffffff168152602001908152602001600020600101600082825403925050819055508773ffffffffffffffffffffffffffffffffffffffff166108fc349081150290604051600060405180830381858888f19350505050505050505050505050565b610652611482565b336000600460008373ffffffffffffffffffffffffffffffffffffffff1673ffffffffffffffffffffffffffffffffffffffff168152602001908152602001600020600001805460018160011615610100020316600290049050141515156106b957600080fd5b600460003373ffffffffffffffffffffffffffffffffffffffff1673ffffffffffffffffffffffffffffffffffffffff1681526020019081526020016000206000018054600181600116156101000203166002900480601f01602080910402602001604051908101604052809291908181526020018280546001816001161561010002031660029004801561078f5780601f106107645761010080835404028352916020019161078f565b820191906000526020600020905b81548152906001019060200180831161077257829003601f168201915b505050505091505090565b6000809054906101000a900473ffffffffffffffffffffffffffffffffffffffff1673ffffffffffffffffffffffffffffffffffffffff163373ffffffffffffffffffffffffffffffffffffffff161415610829576000809054906101000a900473ffffffffffffffffffffffffffffffffffffffff1673ffffffffffffffffffffffffffffffffffffffff16ff5b565b816000600460008373ffffffffffffffffffffffffffffffffffffffff1673ffffffffffffffffffffffffffffffffffffffff1681526020019081526020016000206000018054600181600116156101000203166002900490501415151561089257600080fd5b338073ffffffffffffffffffffffffffffffffffffffff16600260009054906101000a900473ffffffffffffffffffffffffffffffffffffffff1673ffffffffffffffffffffffffffffffffffffffff161415156108ef57600080fd5b82600460008673ffffffffffffffffffffffffffffffffffffffff1673ffffffffffffffffffffffffffffffffffffffff16815260200190815260200160002060010160008282540192505081905550600460008573ffffffffffffffffffffffffffffffffffffffff1673ffffffffffffffffffffffffffffffffffffffff16815260200190815260200160002060020154600460008673ffffffffffffffffffffffffffffffffffffffff1673ffffffffffffffffffffffffffffffffffffffff1681526020019081526020016000206001015413156109d5576109d484610c87565b5b50505050565b6000336000600460008373ffffffffffffffffffffffffffffffffffffffff1673ffffffffffffffffffffffffffffffffffffffff16815260200190815260200160002060000180546001816001161561010002031660029004905014151515610a4457600080fd5b600460003373ffffffffffffffffffffffffffffffffffffffff1673ffffffffffffffffffffffffffffffffffffffff1681526020019081526020016000206004015491505090565b6000336000600460008373ffffffffffffffffffffffffffffffffffffffff1673ffffffffffffffffffffffffffffffffffffffff16815260200190815260200160002060000180546001816001161561010002031660029004905014151515610af657600080fd5b600460003373ffffffffffffffffffffffffffffffffffffffff1673ffffffffffffffffffffffffffffffffffffffff1681526020019081526020016000206003015460010291505090565b336000600460008373ffffffffffffffffffffffffffffffffffffffff1673ffffffffffffffffffffffffffffffffffffffff16815260200190815260200160002060040154111515610b9457600080fd5b600460003373ffffffffffffffffffffffffffffffffffffffff1673ffffffffffffffffffffffffffffffffffffffff1681526020019081526020016000206004015434141515610be457600080fd5b6000600460003373ffffffffffffffffffffffffffffffffffffffff1673ffffffffffffffffffffffffffffffffffffffff16815260200190815260200160002060040181905550600260009054906101000a900473ffffffffffffffffffffffffffffffffffffffff1673ffffffffffffffffffffffffffffffffffffffff166108fc349081150290604051600060405180830381858888f193505050505050565b6213c6804201600460008373ffffffffffffffffffffffffffffffffffffffff1673ffffffffffffffffffffffffffffffffffffffff1681526020019081526020016000206005018190555050565b338180600460008473ffffffffffffffffffffffffffffffffffffffff1673ffffffffffffffffffffffffffffffffffffffff1681526020019081526020016000206003015410151515610d2957600080fd5b82600460003373ffffffffffffffffffffffffffffffffffffffff1673ffffffffffffffffffffffffffffffffffffffff1681526020019081526020016000206003016000828254039250508190555082600460003373ffffffffffffffffffffffffffffffffffffffff1673ffffffffffffffffffffffffffffffffffffffff16815260200190815260200160002060010160008282540392505081905550505050565b6000336000600460008373ffffffffffffffffffffffffffffffffffffffff1673ffffffffffffffffffffffffffffffffffffffff16815260200190815260200160002060000180546001816001161561010002031660029004905014151515610e3757600080fd5b600460003373ffffffffffffffffffffffffffffffffffffffff1673ffffffffffffffffffffffffffffffffffffffff1681526020019081526020016000206002015491505090565b6000336000600460008373ffffffffffffffffffffffffffffffffffffffff1673ffffffffffffffffffffffffffffffffffffffff16815260200190815260200160002060000180546001816001161561010002031660029004905014151515610ee957600080fd5b600460003373ffffffffffffffffffffffffffffffffffffffff1673ffffffffffffffffffffffffffffffffffffffff1681526020019081526020016000206001015491505090565b336000809054906101000a900473ffffffffffffffffffffffffffffffffffffffff1673ffffffffffffffffffffffffffffffffffffffff168173ffffffffffffffffffffffffffffffffffffffff16141515610f8e57600080fd5b816000600460008373ffffffffffffffffffffffffffffffffffffffff1673ffffffffffffffffffffffffffffffffffffffff168152602001908152602001600020600001805460018160011615610100020316600290049050141515610ff457600080fd5b82600260006101000a81548173ffffffffffffffffffffffffffffffffffffffff021916908373ffffffffffffffffffffffffffffffffffffffff160217905550505050565b338073ffffffffffffffffffffffffffffffffffffffff16600260009054906101000a900473ffffffffffffffffffffffffffffffffffffffff1673ffffffffffffffffffffffffffffffffffffffff1614151561109757600080fd5b826000600460008373ffffffffffffffffffffffffffffffffffffffff1673ffffffffffffffffffffffffffffffffffffffff168152602001908152602001600020600001805460018160011615610100020316600290049050141515156110fe57600080fd5b83600460008273ffffffffffffffffffffffffffffffffffffffff1673ffffffffffffffffffffffffffffffffffffffff16815260200190815260200160002060020154600460008373ffffffffffffffffffffffffffffffffffffffff1673ffffffffffffffffffffffffffffffffffffffff1681526020019081526020016000206001015413151561119157600080fd5b83600460008773ffffffffffffffffffffffffffffffffffffffff1673ffffffffffffffffffffffffffffffffffffffff168152602001908152602001600020600401819055505050505050565b336000809054906101000a900473ffffffffffffffffffffffffffffffffffffffff1673ffffffffffffffffffffffffffffffffffffffff168173ffffffffffffffffffffffffffffffffffffffff1614151561123b57600080fd5b836000600460008373ffffffffffffffffffffffffffffffffffffffff1673ffffffffffffffffffffffffffffffffffffffff1681526020019081526020016000206000018054600181600116156101000203166002900490501415156112a157600080fd5b83600460008773ffffffffffffffffffffffffffffffffffffffff1673ffffffffffffffffffffffffffffffffffffffff16815260200190815260200160002060000190805190602001906112f7929190611496565b5082600460008773ffffffffffffffffffffffffffffffffffffffff1673ffffffffffffffffffffffffffffffffffffffff168152602001908152602001600020600201819055505050505050565b338180600460008473ffffffffffffffffffffffffffffffffffffffff1673ffffffffffffffffffffffffffffffffffffffff1681526020019081526020016000206003015401600460008473ffffffffffffffffffffffffffffffffffffffff1673ffffffffffffffffffffffffffffffffffffffff16815260200190815260200160002060020154101515156113dd57600080fd5b82600460003373ffffffffffffffffffffffffffffffffffffffff1673ffffffffffffffffffffffffffffffffffffffff1681526020019081526020016000206003016000828254019250508190555082600460003373ffffffffffffffffffffffffffffffffffffffff1673ffffffffffffffffffffffffffffffffffffffff16815260200190815260200160002060010160008282540192505081905550505050565b602060405190810160405280600081525090565b828054600181600116156101000203166002900490600052602060002090601f016020900481019282601f106114d757805160ff1916838001178555611505565b82800160010185558215611505579182015b828111156115045782518255916020019190600101906114e9565b5b5090506115129190611516565b5090565b61153891905b8082111561153457600081600090555060010161151c565b5090565b905600a165627a7a72305820166b351efa478c5fffbf8dc1c08730de73c54d72e4fee77deca86b14df5779b00029",
  "source": "pragma solidity ^0.4.17;\n\ncontract mortal {\n    /* Define variable owner of the type address */\n    address owner;\n    \n    /* This function is executed at initialization and sets the owner of the contract */\n    function mortal() public { owner = msg.sender; }\n\n    /* Function to recover the funds on the contract */\n    function kill() public { if (msg.sender == owner) selfdestruct(owner); }\n}\n\n\ncontract tradingEmissions is mortal {\n\n  address creator;\n  address regulator;\n  // STATE \n  struct Company{\n    //uint RIN_ID;?\n    string name;\n    int emus;//emu => emission units, emu <= emuLimit at all times, less is better\n    uint emuLimit; //upper bound, more is not possible => implies a fine to compayn\n    uint emusOnSale; //more is better\n    uint fine; // if >0 then it is locked\n    uint fine_deadline;\n  }\n  \n  uint emusPrice = 1; //1 wei == 1 emissionsunitPrice\n  mapping (address => Company) companies;\n  /* Constructor */\n  function tradingEmissions() public {\n    creator = msg.sender;\n    addCompany(msg.sender, \"testcompany\", 500);\n  }\n\n  modifier isCompany(address ad){\n    require(bytes(companies[ad].name).length != 0);//name is the ID atm\n    _;\n  }\n    \n  modifier enoughFreeUnits(address seller, uint emus, uint price){\n    uint totalUnits=0;\n    require(emus==emusPrice*price);\n    require(companies[seller].emusOnSale>= emus);\n    _;\n  }\n  \n  function buyEmus(address seller, uint emus) public payable // TODO QUEUE for buying instead of specifying seller\n    isCompany(seller)\n    isCompany(msg.sender)\n    enoughFreeUnits(seller,emus,msg.value)\n      {\n\tcompanies[seller].emusOnSale-= emus;\n\tcompanies[msg.sender].emus-= int(emus);\n\t\n\n\tseller.send(msg.value);//TO-TEST send money to seller\n      }\n  \n  modifier enoughForSale(address owner, uint emusToSale){\n    require(companies[owner].emuLimit>=companies[owner].emusOnSale+emusToSale);\n    _;\n  }\n  \n  function putEmusOnSale(uint emusToSale)\n    enoughForSale(msg.sender,emusToSale)\n  {\n    companies[msg.sender].emusOnSale+=emusToSale;\n    companies[msg.sender].emus+=int(emusToSale);\n  }\n\n  modifier enoughToRemove(address owner, uint emusToRemove){\n    require(companies[owner].emusOnSale>=emusToRemove);\n    _;\n  }\n\n  function removeEmusFromSale(uint emusToRemove)\n    enoughToRemove(msg.sender,emusToRemove)\n  {\n    companies[msg.sender].emusOnSale-=emusToRemove;\n    companies[msg.sender].emus-=int(emusToRemove);\n  }\n\n  modifier isRegulator(address ad){\n    require(regulator==ad);\n    _;\n  }\n  \n  function updateEmus(address company, uint addedEmus)\n    isCompany(company)\n    isRegulator(msg.sender)\n  {\n    companies[company].emus+=int(addedEmus);\n    if(companies[company].emus>int(companies[company].emuLimit))// --> Account uncovered\n      timestamp(company);\n  }\n\n  function timestamp(address company){\n    companies[company].fine_deadline = block.timestamp + 86400*15;//15 days for deadline to balance account\n  }\n\n  modifier isUncovered(address company){\n    require(companies[company].emus>int(companies[company].emuLimit));\n    _;\n  }\n  \n  function putFine(address company, uint fine)\n    isRegulator(msg.sender)\n    isCompany(company)\n    isUncovered(company)\n  {\n    //lock account\n    companies[company].fine = fine;//account locked till fine paid\n  }\n\n  modifier isLocked(address company){\n    require(companies[company].fine>0);\n    _;\n  }\n  \n  function payFine() payable\n    isLocked(msg.sender)\n  {\n    require(msg.value==companies[msg.sender].fine);\n    companies[msg.sender].fine=0;\n    regulator.send(msg.value);//TO-TEST send money to regulator\n  }\n\n  modifier isCreator(address ad){\n    require(ad==owner);\n    _;\n  }\n  \n  modifier isNotCompany(address ad){\n    require(bytes(companies[ad].name).length == 0);//name is the ID atm\n    _;\n  }\n  \n  function addCompany(address company, string name, uint emuLimit)\n    isCreator(msg.sender)\n    isNotCompany(company){\n    companies[company].name=name;\n    companies[company].emuLimit=emuLimit;\n  }\n\n  function addRegulator(address newRegulator)\n    isCreator(msg.sender)\n    isNotCompany(newRegulator){\n    regulator = newRegulator;\n  }\n\n  // Getters\n  \n  function getName() isCompany(msg.sender) view public returns (string)\n  {\n    return companies[msg.sender].name;\n  }\n\n  function getEmus() isCompany(msg.sender) view public returns (int)   \n  {\n    return companies[msg.sender].emus;\n  }\n    \n  function getEmuLimit()  isCompany(msg.sender) view public returns (uint)   \n  {\n    return companies[msg.sender].emuLimit;\n  }\n\n  function getEmusOnSale() isCompany(msg.sender) view public returns (bytes32) {\n    return bytes32(companies[msg.sender].emusOnSale);\n  }\n\n  function getFine()  isCompany(msg.sender) view public returns (uint)   \n  {\n    return companies[msg.sender].fine;\n  }\n  \n}\n",
  "sourcePath": "/home/vasth/Desktop/equchain/contracts/TradingEmissions.sol",
  "compiler": {
    "name": "solc",
    "version": "0.4.18+commit.9cf6e910.Emscripten.clang"
  },
  "schemaVersion": "1.0.1",
  "updatedAt": "2017-12-10T14:06:49.611Z"
}