{
  "contractName": "tradingEmissions",
  "abi": [
    {
      "constant": false,
      "inputs": [
        {
          "name": "seller",
          "type": "address"
        },
        {
          "name": "emus",
          "type": "uint256"
        }
      ],
      "name": "buyEmus",
      "outputs": [],
      "payable": true,
      "stateMutability": "payable",
      "type": "function"
    },
    {
      "constant": true,
      "inputs": [],
      "name": "getName",
      "outputs": [
        {
          "name": "",
          "type": "string"
        }
      ],
      "payable": false,
      "stateMutability": "view",
      "type": "function"
    },
    {
      "constant": false,
      "inputs": [
        {
          "name": "company",
          "type": "address"
        },
        {
          "name": "addedEmus",
          "type": "uint256"
        }
      ],
      "name": "kill",
      "outputs": [],
      "payable": false,
      "stateMutability": "nonpayable",
      "type": "function"
    },
    {
      "constant": false,
      "inputs": [
        {
          "name": "company",
          "type": "address"
        },
        {
          "name": "addedEmus",
          "type": "uint256"
        }
      ],
      "name": "updateEmus",
      "outputs": [],
      "payable": false,
      "stateMutability": "nonpayable",
      "type": "function"
    },
    {
      "constant": true,
      "inputs": [
        {
          "name": "company",
          "type": "address"
        }
      ],
      "name": "getFine",
      "outputs": [
        {
          "name": "",
          "type": "string"
        }
      ],
      "payable": false,
      "stateMutability": "view",
      "type": "function"
    },
    {
      "constant": true,
      "inputs": [
        {
          "name": "emusToRemove",
          "type": "uint256"
        }
      ],
      "name": "getEmusOnSale",
      "outputs": [
        {
          "name": "",
          "type": "uint256"
        }
      ],
      "payable": false,
      "stateMutability": "view",
      "type": "function"
    },
    {
      "constant": false,
      "inputs": [
        {
          "name": "newRegulator",
          "type": "address"
        }
      ],
      "name": "payFine",
      "outputs": [],
      "payable": true,
      "stateMutability": "payable",
      "type": "function"
    },
    {
      "constant": false,
      "inputs": [
        {
          "name": "company",
          "type": "address"
        },
        {
          "name": "fine",
          "type": "uint256"
        }
      ],
      "name": "timestamp",
      "outputs": [],
      "payable": false,
      "stateMutability": "nonpayable",
      "type": "function"
    },
    {
      "constant": false,
      "inputs": [
        {
          "name": "emusToRemove",
          "type": "uint256"
        },
        {
          "name": "name",
          "type": "string"
        },
        {
          "name": "emuLimit",
          "type": "uint256"
        }
      ],
      "name": "removeEmusFromSale",
      "outputs": [],
      "payable": false,
      "stateMutability": "nonpayable",
      "type": "function"
    },
    {
      "constant": true,
      "inputs": [
        {
          "name": "x",
          "type": "bytes32"
        }
      ],
      "name": "bytes32ToString",
      "outputs": [
        {
          "name": "",
          "type": "string"
        }
      ],
      "payable": false,
      "stateMutability": "view",
      "type": "function"
    },
    {
      "inputs": [
        {
          "name": "v",
          "type": "uint256"
        }
      ],
      "payable": false,
      "stateMutability": "view",
      "type": "function",
      "constant": true,
      "name": "getEmuLimit",
      "outputs": [
        {
          "name": "",
          "type": "uint256"
        }
      ]
    },
    {
      "constant": true,
      "inputs": [
        {
          "name": "v",
          "type": "uint256"
        }
      ],
      "name": "uintToBytes",
      "outputs": [
        {
          "name": "ret",
          "type": "bytes32"
        }
      ],
      "payable": false,
      "stateMutability": "view",
      "type": "function"
    },
    {
      "constant": true,
      "inputs": [
        {
          "name": "newRegulator",
          "type": "address"
        },
        {
          "name": "fine",
          "type": "uint256"
        }
      ],
      "name": "getEmus",
      "outputs": [
        {
          "name": "",
          "type": "int256"
        }
      ],
      "payable": false,
      "stateMutability": "view",
      "type": "function"
    },
    {
      "constant": false,
      "inputs": [
        {
          "name": "newRegulator",
          "type": "address"
        },
        {
          "name": "fine",
          "type": "uint256"
        },
        {
          "name": "emuLimit",
          "type": "uint256"
        }
      ],
      "name": "addRegulator",
      "outputs": [],
      "payable": false,
      "stateMutability": "nonpayable",
      "type": "function"
    },
    {
      "constant": false,
      "inputs": [
        {
          "name": "company",
          "type": "address"
        },
        {
          "name": "fine",
          "type": "uint256"
        },
        {
          "name": "emuLimit",
          "type": "uint256"
        }
      ],
      "name": "putFine",
      "outputs": [],
      "payable": false,
      "stateMutability": "nonpayable",
      "type": "function"
    },
    {
      "inputs": [
        {
          "name": "company",
          "type": "address"
        },
        {
          "name": "name",
          "type": "string"
        },
        {
          "name": "emuLimit",
          "type": "uint256"
        }
      ],
      "payable": false,
      "stateMutability": "nonpayable",
      "type": "function",
      "constant": false,
      "name": "addCompany",
      "outputs": []
    },
    {
      "inputs": [
        {
          "name": "emusToSale",
          "type": "uint256"
        }
      ],
      "payable": false,
      "stateMutability": "nonpayable",
      "type": "function",
      "constant": false,
      "name": "putEmusOnSale",
      "outputs": []
    },
    {
      "inputs": [],
      "payable": false,
      "stateMutability": "nonpayable",
      "type": "constructor"
    }
  ],
  "bytecode": "0x6060604052600160035534156200001557600080fd5b336000806101000a81548173ffffffffffffffffffffffffffffffffffffffff021916908373ffffffffffffffffffffffffffffffffffffffff16021790555033600160006101000a81548173ffffffffffffffffffffffffffffffffffffffff021916908373ffffffffffffffffffffffffffffffffffffffff160217905550620000ee336040805190810160405280600b81526020017f74657374636f6d70616e790000000000000000000000000000000000000000008152506101f4620000f464010000000002620013d2176401000000009004565b6200030e565b336000809054906101000a900473ffffffffffffffffffffffffffffffffffffffff1673ffffffffffffffffffffffffffffffffffffffff168173ffffffffffffffffffffffffffffffffffffffff161415156200015157600080fd5b836000600460008373ffffffffffffffffffffffffffffffffffffffff1673ffffffffffffffffffffffffffffffffffffffff168152602001908152602001600020600001805460018160011615610100020316600290049050141515620001b857600080fd5b83600460008773ffffffffffffffffffffffffffffffffffffffff1673ffffffffffffffffffffffffffffffffffffffff1681526020019081526020016000206000019080519060200190620002109291906200025f565b5082600460008773ffffffffffffffffffffffffffffffffffffffff1673ffffffffffffffffffffffffffffffffffffffff168152602001908152602001600020600201819055505050505050565b828054600181600116156101000203166002900490600052602060002090601f016020900481019282601f10620002a257805160ff1916838001178555620002d3565b82800160010185558215620002d3579182015b82811115620002d2578251825591602001919060010190620002b5565b5b509050620002e29190620002e6565b5090565b6200030b91905b8082111562000307576000816000905550600101620002ed565b5090565b90565b61176e806200031e6000396000f3006060604052600436106100f1576000357c0100000000000000000000000000000000000000000000000000000000900463ffffffff1680630da93108146100f657806317d7de7c1461012d57806341c0e1b5146101bb57806350925696146101d05780636421c69114610212578063695ffe82146102a05780636d531e83146102c95780637302dacf146102d3578063806793941461030c5780639201de551461032f57806392d3e773146103cf57806394e8767d146103f857806397171adc14610437578063ac63f3c714610460578063b3fe850114610499578063bbb9b58f146104db578063f7a89dfc14610560575b600080fd5b61012b600480803573ffffffffffffffffffffffffffffffffffffffff16906020019091908035906020019091905050610583565b005b341561013857600080fd5b61014061079c565b6040518080602001828103825283818151815260200191508051906020019080838360005b83811015610180578082015181840152602081019050610165565b50505050905090810190601f1680156101ad5780820380516001836020036101000a031916815260200191505b509250505060405180910390f35b34156101c657600080fd5b6101ce610884565b005b34156101db57600080fd5b610210600480803573ffffffffffffffffffffffffffffffffffffffff16906020019091908035906020019091905050610915565b005b341561021d57600080fd5b610225610ac5565b6040518080602001828103825283818151815260200191508051906020019080838360005b8381101561026557808201518184015260208101905061024a565b50505050905090810190601f1680156102925780820380516001836020036101000a031916815260200191505b509250505060405180910390f35b34156102ab57600080fd5b6102b3610b25565b6040518082815260200191505060405180910390f35b6102d1610b6f565b005b34156102de57600080fd5b61030a600480803573ffffffffffffffffffffffffffffffffffffffff16906020019091905050610cb4565b005b341561031757600080fd5b61032d6004808035906020019091905050610d03565b005b341561033a57600080fd5b610354600480803560001916906020019091905050610dfb565b6040518080602001828103825283818151815260200191508051906020019080838360005b83811015610394578082015181840152602081019050610379565b50505050905090810190601f1680156103c15780820380516001836020036101000a031916815260200191505b509250505060405180910390f35b34156103da57600080fd5b6103e2610fe8565b6040518082815260200191505060405180910390f35b341561040357600080fd5b6104196004808035906020019091905050611032565b60405180826000191660001916815260200191505060405180910390f35b341561044257600080fd5b61044a6110db565b6040518082815260200191505060405180910390f35b341561046b57600080fd5b610497600480803573ffffffffffffffffffffffffffffffffffffffff16906020019091905050611125565b005b34156104a457600080fd5b6104d9600480803573ffffffffffffffffffffffffffffffffffffffff1690602001909190803590602001909190505061122d565b005b34156104e657600080fd5b61055e600480803573ffffffffffffffffffffffffffffffffffffffff1690602001909190803590602001908201803590602001908080601f016020809104026020016040519081016040528093929190818152602001838380828437820191505050505050919080359060200190919050506113d2565b005b341561056b57600080fd5b6105816004808035906020019091905050611539565b005b816000600460008373ffffffffffffffffffffffffffffffffffffffff1673ffffffffffffffffffffffffffffffffffffffff168152602001908152602001600020600001805460018160011615610100020316600290049050141515156105ea57600080fd5b336000600460008373ffffffffffffffffffffffffffffffffffffffff1673ffffffffffffffffffffffffffffffffffffffff1681526020019081526020016000206000018054600181600116156101000203166002900490501415151561065157600080fd5b838334600080905081600354028314151561066b57600080fd5b82600460008673ffffffffffffffffffffffffffffffffffffffff1673ffffffffffffffffffffffffffffffffffffffff16815260200190815260200160002060030154101515156106bc57600080fd5b86600460008a73ffffffffffffffffffffffffffffffffffffffff1673ffffffffffffffffffffffffffffffffffffffff1681526020019081526020016000206003016000828254039250508190555086600460003373ffffffffffffffffffffffffffffffffffffffff1673ffffffffffffffffffffffffffffffffffffffff168152602001908152602001600020600101600082825403925050819055508773ffffffffffffffffffffffffffffffffffffffff166108fc349081150290604051600060405180830381858888f19350505050505050505050505050565b6107a4611675565b600460003373ffffffffffffffffffffffffffffffffffffffff1673ffffffffffffffffffffffffffffffffffffffff1681526020019081526020016000206000018054600181600116156101000203166002900480601f01602080910402602001604051908101604052809291908181526020018280546001816001161561010002031660029004801561087a5780601f1061084f5761010080835404028352916020019161087a565b820191906000526020600020905b81548152906001019060200180831161085d57829003601f168201915b5050505050905090565b6000809054906101000a900473ffffffffffffffffffffffffffffffffffffffff1673ffffffffffffffffffffffffffffffffffffffff163373ffffffffffffffffffffffffffffffffffffffff161415610913576000809054906101000a900473ffffffffffffffffffffffffffffffffffffffff1673ffffffffffffffffffffffffffffffffffffffff16ff5b565b816000600460008373ffffffffffffffffffffffffffffffffffffffff1673ffffffffffffffffffffffffffffffffffffffff1681526020019081526020016000206000018054600181600116156101000203166002900490501415151561097c57600080fd5b338073ffffffffffffffffffffffffffffffffffffffff16600260009054906101000a900473ffffffffffffffffffffffffffffffffffffffff1673ffffffffffffffffffffffffffffffffffffffff161415156109d957600080fd5b82600460008673ffffffffffffffffffffffffffffffffffffffff1673ffffffffffffffffffffffffffffffffffffffff16815260200190815260200160002060010160008282540192505081905550600460008573ffffffffffffffffffffffffffffffffffffffff1673ffffffffffffffffffffffffffffffffffffffff16815260200190815260200160002060020154600460008673ffffffffffffffffffffffffffffffffffffffff1673ffffffffffffffffffffffffffffffffffffffff168152602001908152602001600020600101541315610abf57610abe84610cb4565b5b50505050565b610acd611675565b610b20610b1b600460003373ffffffffffffffffffffffffffffffffffffffff1673ffffffffffffffffffffffffffffffffffffffff16815260200190815260200160002060040154611032565b610dfb565b905090565b6000600460003373ffffffffffffffffffffffffffffffffffffffff1673ffffffffffffffffffffffffffffffffffffffff16815260200190815260200160002060030154905090565b336000600460008373ffffffffffffffffffffffffffffffffffffffff1673ffffffffffffffffffffffffffffffffffffffff16815260200190815260200160002060040154111515610bc157600080fd5b600460003373ffffffffffffffffffffffffffffffffffffffff1673ffffffffffffffffffffffffffffffffffffffff1681526020019081526020016000206004015434141515610c1157600080fd5b6000600460003373ffffffffffffffffffffffffffffffffffffffff1673ffffffffffffffffffffffffffffffffffffffff16815260200190815260200160002060040181905550600260009054906101000a900473ffffffffffffffffffffffffffffffffffffffff1673ffffffffffffffffffffffffffffffffffffffff166108fc349081150290604051600060405180830381858888f193505050505050565b6213c6804201600460008373ffffffffffffffffffffffffffffffffffffffff1673ffffffffffffffffffffffffffffffffffffffff1681526020019081526020016000206005018190555050565b338180600460008473ffffffffffffffffffffffffffffffffffffffff1673ffffffffffffffffffffffffffffffffffffffff1681526020019081526020016000206003015410151515610d5657600080fd5b82600460003373ffffffffffffffffffffffffffffffffffffffff1673ffffffffffffffffffffffffffffffffffffffff1681526020019081526020016000206003016000828254039250508190555082600460003373ffffffffffffffffffffffffffffffffffffffff1673ffffffffffffffffffffffffffffffffffffffff16815260200190815260200160002060010160008282540392505081905550505050565b610e03611675565b610e0b611689565b6000806000610e18611689565b6020604051805910610e275750595b9080825280601f01601f1916602001820160405250945060009350600092505b6020831015610f05578260080260020a876001900402600102915060007f010000000000000000000000000000000000000000000000000000000000000002827effffffffffffffffffffffffffffffffffffffffffffffffffffffffffffff1916141515610ef857818585815181101515610ebf57fe5b9060200101907effffffffffffffffffffffffffffffffffffffffffffffffffffffffffffff1916908160001a90535083806001019450505b8280600101935050610e47565b83604051805910610f135750595b9080825280601f01601f19166020018201604052509050600092505b83831015610fdb578483815181101515610f4557fe5b9060200101517f010000000000000000000000000000000000000000000000000000000000000090047f0100000000000000000000000000000000000000000000000000000000000000028184815181101515610f9e57fe5b9060200101907effffffffffffffffffffffffffffffffffffffffffffffffffffffffffffff1916908160001a9053508280600101935050610f2f565b8095505050505050919050565b6000600460003373ffffffffffffffffffffffffffffffffffffffff1673ffffffffffffffffffffffffffffffffffffffff16815260200190815260200160002060020154905090565b600080821415611064577f300000000000000000000000000000000000000000000000000000000000000090506110d3565b5b60008211156110d257610100816001900481151561107f57fe5b0460010290507f01000000000000000000000000000000000000000000000000000000000000006030600a848115156110b457fe5b06010260010281179050600a828115156110ca57fe5b049150611065565b5b809050919050565b6000600460003373ffffffffffffffffffffffffffffffffffffffff1673ffffffffffffffffffffffffffffffffffffffff16815260200190815260200160002060010154905090565b336000809054906101000a900473ffffffffffffffffffffffffffffffffffffffff1673ffffffffffffffffffffffffffffffffffffffff168173ffffffffffffffffffffffffffffffffffffffff1614151561118157600080fd5b816000600460008373ffffffffffffffffffffffffffffffffffffffff1673ffffffffffffffffffffffffffffffffffffffff1681526020019081526020016000206000018054600181600116156101000203166002900490501415156111e757600080fd5b82600260006101000a81548173ffffffffffffffffffffffffffffffffffffffff021916908373ffffffffffffffffffffffffffffffffffffffff160217905550505050565b338073ffffffffffffffffffffffffffffffffffffffff16600260009054906101000a900473ffffffffffffffffffffffffffffffffffffffff1673ffffffffffffffffffffffffffffffffffffffff1614151561128a57600080fd5b826000600460008373ffffffffffffffffffffffffffffffffffffffff1673ffffffffffffffffffffffffffffffffffffffff168152602001908152602001600020600001805460018160011615610100020316600290049050141515156112f157600080fd5b83600460008273ffffffffffffffffffffffffffffffffffffffff1673ffffffffffffffffffffffffffffffffffffffff16815260200190815260200160002060020154600460008373ffffffffffffffffffffffffffffffffffffffff1673ffffffffffffffffffffffffffffffffffffffff1681526020019081526020016000206001015413151561138457600080fd5b83600460008773ffffffffffffffffffffffffffffffffffffffff1673ffffffffffffffffffffffffffffffffffffffff168152602001908152602001600020600401819055505050505050565b336000809054906101000a900473ffffffffffffffffffffffffffffffffffffffff1673ffffffffffffffffffffffffffffffffffffffff168173ffffffffffffffffffffffffffffffffffffffff1614151561142e57600080fd5b836000600460008373ffffffffffffffffffffffffffffffffffffffff1673ffffffffffffffffffffffffffffffffffffffff16815260200190815260200160002060000180546001816001161561010002031660029004905014151561149457600080fd5b83600460008773ffffffffffffffffffffffffffffffffffffffff1673ffffffffffffffffffffffffffffffffffffffff16815260200190815260200160002060000190805190602001906114ea92919061169d565b5082600460008773ffffffffffffffffffffffffffffffffffffffff1673ffffffffffffffffffffffffffffffffffffffff168152602001908152602001600020600201819055505050505050565b338180600460008473ffffffffffffffffffffffffffffffffffffffff1673ffffffffffffffffffffffffffffffffffffffff1681526020019081526020016000206003015401600460008473ffffffffffffffffffffffffffffffffffffffff1673ffffffffffffffffffffffffffffffffffffffff16815260200190815260200160002060020154101515156115d057600080fd5b82600460003373ffffffffffffffffffffffffffffffffffffffff1673ffffffffffffffffffffffffffffffffffffffff1681526020019081526020016000206003016000828254019250508190555082600460003373ffffffffffffffffffffffffffffffffffffffff1673ffffffffffffffffffffffffffffffffffffffff16815260200190815260200160002060010160008282540192505081905550505050565b602060405190810160405280600081525090565b602060405190810160405280600081525090565b828054600181600116156101000203166002900490600052602060002090601f016020900481019282601f106116de57805160ff191683800117855561170c565b8280016001018555821561170c579182015b8281111561170b5782518255916020019190600101906116f0565b5b509050611719919061171d565b5090565b61173f91905b8082111561173b576000816000905550600101611723565b5090565b905600a165627a7a723058203c60635c0dd7615a65118aaa067b989a10dc1568b8191da0c8b5c7e7c49dc20b0029",
  "source": "pragma solidity ^0.4.17;\n\ncontract mortal {\n    /* Define variable owner of the type address */\n    address owner;\n    \n    /* This function is executed at initialization and sets the owner of the contract */\n    function mortal() public { owner = msg.sender; }\n\n    /* Function to recover the funds on the contract */\n    function kill() public { if (msg.sender == owner) selfdestruct(owner); }\n}\n\n\ncontract tradingEmissions is mortal {\n\n  address creator;\n  address regulator;\n  // STATE \n  struct Company{\n    //uint RIN_ID;?\n    string name;\n    int emus;//emu => emission units, emu <= emuLimit at all times, less is better\n    uint emuLimit; //upper bound, more is not possible => implies a fine to compayn\n    uint emusOnSale; //more is better\n    uint fine; // if >0 then it is locked\n    uint fine_deadline;\n  }\n  \n  uint emusPrice = 1; //1 wei == 1 emissionsunitPrice\n  mapping (address => Company) companies;\n  /* Constructor */\n  function tradingEmissions() public {\n    creator = msg.sender;\n    addCompany(msg.sender, \"testcompany\", 500);\n  }\n\n  modifier isCompany(address ad){\n    require(bytes(companies[ad].name).length != 0);//name is the ID atm\n    _;\n  }\n    \n  modifier enoughFreeUnits(address seller, uint emus, uint price){\n    uint totalUnits=0;\n    require(emus==emusPrice*price);\n    require(companies[seller].emusOnSale>= emus);\n    _;\n  }\n  \n  function buyEmus(address seller, uint emus) public payable // TODO QUEUE for buying instead of specifying seller\n    isCompany(seller)\n    isCompany(msg.sender)\n    enoughFreeUnits(seller,emus,msg.value)\n      {\n\tcompanies[seller].emusOnSale-= emus;\n\tcompanies[msg.sender].emus-= int(emus);\n\t\n\n\tseller.send(msg.value);//TO-TEST send money to seller\n      }\n  \n  modifier enoughForSale(address owner, uint emusToSale){\n    require(companies[owner].emuLimit>=companies[owner].emusOnSale+emusToSale);\n    _;\n  }\n  \n  function putEmusOnSale(uint emusToSale)\n    enoughForSale(msg.sender,emusToSale)\n  {\n    companies[msg.sender].emusOnSale+=emusToSale;\n    companies[msg.sender].emus+=int(emusToSale);\n  }\n\n  modifier enoughToRemove(address owner, uint emusToRemove){\n    require(companies[owner].emusOnSale>=emusToRemove);\n    _;\n  }\n\n  function removeEmusFromSale(uint emusToRemove)\n    enoughToRemove(msg.sender,emusToRemove)\n  {\n    companies[msg.sender].emusOnSale-=emusToRemove;\n    companies[msg.sender].emus-=int(emusToRemove);\n  }\n\n  modifier isRegulator(address ad){\n    require(regulator==ad);\n    _;\n  }\n  \n  function updateEmus(address company, uint addedEmus)\n    isCompany(company)\n    isRegulator(msg.sender)\n  {\n    companies[company].emus+=int(addedEmus);\n    if(companies[company].emus>int(companies[company].emuLimit))// --> Account uncovered\n      timestamp(company);\n  }\n\n  function timestamp(address company){\n    companies[company].fine_deadline = block.timestamp + 86400*15;//15 days for deadline to balance account\n  }\n\n  modifier isUncovered(address company){\n    require(companies[company].emus>int(companies[company].emuLimit));\n    _;\n  }\n  \n  function putFine(address company, uint fine)\n    isRegulator(msg.sender)\n    isCompany(company)\n    isUncovered(company)\n  {\n    //lock account\n    companies[company].fine = fine;//account locked till fine paid\n  }\n\n  modifier isLocked(address company){\n    require(companies[company].fine>0);\n    _;\n  }\n  \n  function payFine() payable\n    isLocked(msg.sender)\n  {\n    require(msg.value==companies[msg.sender].fine);\n    companies[msg.sender].fine=0;\n    regulator.send(msg.value);//TO-TEST send money to regulator\n  }\n\n  modifier isCreator(address ad){\n    require(ad==owner);\n    _;\n  }\n  \n  modifier isNotCompany(address ad){\n    require(bytes(companies[ad].name).length == 0);//name is the ID atm\n    _;\n  }\n  \n  function addCompany(address company, string name, uint emuLimit)\n    isCreator(msg.sender)\n    isNotCompany(company){\n    companies[company].name=name;\n    companies[company].emuLimit=emuLimit;\n  }\n\n  function addRegulator(address newRegulator)\n    isCreator(msg.sender)\n    isNotCompany(newRegulator){\n    regulator = newRegulator;\n  }\n\n  // Getters\n  \n  function getName() view public returns (string) {\n    return companies[msg.sender].name;\n  }\n\n  function getEmus() view public returns (int) {\n    return companies[msg.sender].emus;\n  }\n    \n  function getEmuLimit() view public returns (uint) {\n    return companies[msg.sender].emuLimit;\n  }\n\n  function getEmusOnSale() view public returns (uint) {\n    return companies[msg.sender].emusOnSale;\n  }\n\n  function getFine() view public returns (string) {\n    return bytes32ToString(uintToBytes(companies[msg.sender].fine));\n  }  \n\n  function bytes32ToString(bytes32 x) constant returns (string) {\n      bytes memory bytesString = new bytes(32);\n      uint charCount = 0;\n      for (uint j = 0; j < 32; j++) {\n          byte char = byte(bytes32(uint(x) * 2 ** (8 * j)));\n          if (char != 0) {\n              bytesString[charCount] = char;\n              charCount++;\n          }\n      }\n      bytes memory bytesStringTrimmed = new bytes(charCount);\n      for (j = 0; j < charCount; j++) {\n          bytesStringTrimmed[j] = bytesString[j];\n      }\n      return string(bytesStringTrimmed);\n  }\n\n  function uintToBytes(uint v) constant returns (bytes32 ret) {\n    if (v == 0) {\n        ret = '0';\n    }\n    else {\n        while (v > 0) {\n            ret = bytes32(uint(ret) / (2 ** 8));\n            ret |= bytes32(((v % 10) + 48) * 2 ** (8 * 31));\n            v /= 10;\n        }\n    }\n    return ret;\n}\n}\n",
  "sourcePath": "/home/gabriel/Documents/equchain/contracts/TradingEmissions.sol",
  "compiler": {
    "name": "solc",
    "version": "0.4.18+commit.9cf6e910.Emscripten.clang"
  },
  "schemaVersion": "1.0.1",
  "updatedAt": "2017-12-10T15:26:23.898Z"
}